:100000000C9434000C9451000C9451000C94510049
:100010000C94D8000C9451000C9451000C94510095
:100020000C9451000C9451000C9451000C9451000C
:100030000C9451000C9451000C9451000C945100FC
:100040000C9451000C9451000C9451000C945100EC
:100050000C9451000C949E000C9451000C9451008F
:100060000C9451000C94510011241FBECFEFD8E026
:10007000DEBFCDBF11E0A0E0B1E0E6ECF8E002C0E9
:1000800005900D92A630B107D9F721E0A6E0B1E0C6
:1000900001C01D92AF33B207E1F70E94EC000C944F
:1000A00061040C9400008AB18E7F8AB98AB18260A3
:1000B0008AB9E0ECF0E01082808182608083E1EC1C
:1000C000F0E01082808188698083E2ECF0E01082A9
:1000D0008081866080838FEC90E09093C500809350
:1000E000C4000895AC0120E007C09091C00095FFC6
:1000F000FCCF3093C6002F5FFA01E20FF11D308173
:100100003111F3CF0895ECE7F0E010828081806434
:100110008083808180628083EAE7F0E010828081C2
:10012000806880838081886080838081876080830D
:1001300010927B0080818064808308951F920F92CB
:100140000FB60F9211242F938F939F93EF93FF93EA
:1001500080917800909179002091070121110EC0C3
:1001600090930B0180930A0181E080930701ECE7F3
:10017000F0E08081807F816080830BC090930901D3
:100180008093080110920701ECE7F0E08081807F06
:100190008083EAE7F0E0808180648083FF91EF91C3
:1001A0009F918F912F910F900FBE0F901F901895D8
:1001B0001F920F920FB60F9211248F93329904C0A1
:1001C00081E08093060102C0109206018F910F908A
:1001D0000FBE0F901F901895F8940E9453000E9434
:1001E000830087B18B7F87B988B1846088B9E8E6DE
:1001F000F0E0808182608083ECE6F0E080818460C2
:100200008083789480910A0190910B0181349C49FC
:1002100020F089E480930C0122C080910A01909122
:100220000B01892B21F484E480930C0118C0809188
:1002300008019091090181349C4920F081E4809368
:100240000C010DC08091080190910901892B21F4C6
:1002500082E480930C0103C080E280930C018091C2
:1002600006018130D9F480910001811117C080917D
:100270000C01803299F4EDE0F1E080E59AE09183A1
:1002800080831282CF010E9472008FEF94E32CE0F2
:10029000815090402040E1F700C0000080910601AD
:1002A0008093000180910C01803209F4ABCF1F9242
:1002B0008F9381E091E09F938F938DE091E09F93E6
:1002C0008F930E9477018DE091E00E9472008FEF82
:1002D00094E32CE0815090402040E1F700C0000002
:1002E0000F900F900F900F900F900F908BCFAEE06C
:1002F000B0E0EDE7F1E00C9438040D891E8986E04A
:100300008C831A8309838FEF9FE79E838D83AE01D1
:10031000475E5F4F6F89788DCE0101960E949901EB
:10032000EF81F885E00FF11F10822E96E4E00C9427
:100330005404ABE0B0E0EFE9F1E00C942A046C0166
:100340007B018A01FC0117821682838181FFCCC167
:10035000CE0101963C01F6019381F70193FD859151
:1003600093FF81917F01882309F4BAC1853239F462
:1003700093FD859193FF81917F01853229F4B60128
:1003800090E00E949003E7CF912C212C312CFFE1CB
:10039000F315D8F08B3279F038F4803279F083326B
:1003A000A1F4232D20611DC08D3261F0803369F4EA
:1003B000232D216016C0832D8260382EE32DE4604A
:1003C0003E2E2AC0F32DF8601DC037FC2DC020ED55
:1003D000280F2A3040F08E32B9F436FC81C1232D2B
:1003E0002064322E19C036FE06C08AE0989E200D89
:1003F0001124922E11C0EAE02E9E200D1124222EEF
:10040000F32DF0623F2E08C08C3621F4832D8068D6
:10041000382E02C0883641F4F70193FD859193FF91
:1004200081917F018111B3CF982F9F7D9554933097
:1004300028F40C5F1F4F9FE399830DC0833631F082
:10044000833771F0833509F059C021C0F8018081EC
:1004500089830E5F1F4F88248394912C530113C00E
:100460002801F2E04F0E511CF801A080B18036FE49
:1004700003C0692D70E002C06FEF7FEFC5010E94DD
:1004800085034C018201F32DFF773F2E16C0280112
:1004900022E0420E511CF801A080B18036FE03C05C
:1004A000692D70E002C06FEF7FEFC5010E947A03F3
:1004B0004C01F32DF0683F2E820133FC1BC0822DCE
:1004C00090E088169906B0F4B60180E290E00E94B0
:1004D00090032A94F4CFF50137FC859137FE819182
:1004E0005F01B60190E00E94900321102A9421E060
:1004F000821A91088114910471F7E8C0843611F0D2
:10050000893641F5F80137FE07C06081718182812B
:1005100093810C5F1F4F08C060817181072E000C12
:10052000880B990B0E5F1F4FF32DFF763F2E97FF21
:1005300009C090958095709561957F4F8F4F9F4F23
:10054000F0683F2E2AE030E0A3010E94CC03882E01
:10055000861845C0853731F4232D2F7EB22E2AE030
:1005600030E025C0932D997FB92E8F36C1F018F455
:10057000883579F0B5C0803719F0883721F0B0C0E0
:10058000E92FE061BE2EB4FE0DC0FB2DF460BF2E3E
:1005900009C034FE0AC0292F2660B22E06C028E00A
:1005A00030E005C020E130E002C020E132E0F80197
:1005B000B7FE07C060817181828193810C5F1F4FFC
:1005C00006C06081718180E090E00E5F1F4FA30143
:1005D0000E94CC03882E8618FB2DFF773F2E36FE17
:1005E0000DC0232D2E7FA22E891458F434FE0BC08B
:1005F00032FC09C0832D8E7EA82E05C0B82CA32CFA
:1006000003C0B82C01C0B92CA4FE0FC0FE01E80D38
:10061000F11D8081803321F49A2D997EA92E09C085
:10062000A2FE06C0B394B39404C08A2D867809F064
:10063000B394A3FC11C0A0FE06C0B21488F4280C29
:10064000922C9B180EC0B21460F4B60180E290E0C8
:100650000E949003B394F7CFB21418F42B1802C081
:10066000982C212CA4FE10C0B60180E390E00E94DB
:100670009003A2FE17C0A1FC03C088E790E002C06F
:1006800088E590E0B6010CC08A2D867859F0A1FE6D
:1006900002C08BE201C080E2A7FC8DE2B60190E0CF
:1006A0000E949003891438F4B60180E390E00E9420
:1006B00090039A94F7CF8A94F301E80DF11D80819D
:1006C000B60190E00E9490038110F5CF222009F43A
:1006D00042CEB60180E290E00E9490032A94F6CFC9
:1006E000F6018681978102C08FEF9FEF2B96E2E1A2
:1006F0000C944604FC010590615070400110D8F73D
:10070000809590958E0F9F1F0895FC016150704059
:1007100001900110D8F7809590958E0F9F1F089536
:100720000F931F93CF93DF93FB01238121FD03C020
:100730008FEF9FEF2CC022FF16C046815781248186
:1007400035814217530744F4A081B1819D012F5F89
:100750003F4F318320838C93268137812F5F3F4F1A
:100760003783268314C08B01EC01FB010084F185E3
:10077000E02D0995892BE1F6D80116968D919C9173
:100780001797019617969C938E931697CE01DF913B
:10079000CF911F910F910895FA01AA27283051F1A6
:1007A000203181F1E8946F936E7F6E5F7F4F8F4FA2
:1007B0009F4FAF4FB1E03ED0B4E03CD0670F781F01
:1007C000891F9A1FA11D680F791F8A1F911DA11DE6
:1007D0006A0F711D811D911DA11D20D009F468941F
:1007E0003F912AE0269F11243019305D3193DEF6C7
:1007F000CF010895462F4770405D4193B3E00FD07D
:10080000C9F7F6CF462F4F70405D4A3318F0495D67
:1008100031FD4052419302D0A9F7EACFB4E0A6954A
:100820009795879577956795BA95C9F7009761056C
:10083000710508959B01AC010A2E069457954795C2
:1008400037952795BA95C9F7620F731F841F951FB7
:10085000A01D08952F923F924F925F926F927F92C8
:100860008F929F92AF92BF92CF92DF92EF92FF92C0
:100870000F931F93CF93DF93CDB7DEB7CA1BDB0B6C
:100880000FB6F894DEBF0FBECDBF09942A88398811
:1008900048885F846E847D848C849B84AA84B98418
:1008A000C884DF80EE80FD800C811B81AA81B98124
:1008B000CE0FD11D0FB6F894DEBF0FBECDBFED0138
:0608C0000895F894FFCF3B
:0608C6000225630A000098
:00000001FF
